{"contracts/PlantBatch.sol":{"PlantBatch":{"abi":[{"anonymous":false,"inputs":[{"indexed":false,"internalType":"uint256","name":"batchId","type":"uint256"},{"indexed":false,"internalType":"string","name":"plantName","type":"string"},{"indexed":false,"internalType":"uint256","name":"harvestDate","type":"uint256"}],"name":"PlantBatchRegistered","type":"event"},{"inputs":[],"name":"batchCounter","outputs":[{"internalType":"uint256","name":"","type":"uint256"}],"stateMutability":"view","type":"function"},{"inputs":[{"internalType":"uint256","name":"_batchId","type":"uint256"}],"name":"getPlantBatch","outputs":[{"components":[{"internalType":"string","name":"plantName","type":"string"},{"internalType":"string","name":"farmer","type":"string"},{"internalType":"uint256","name":"harvestDate","type":"uint256"},{"internalType":"string","name":"soilQuality","type":"string"},{"internalType":"string","name":"pesticideLevel","type":"string"},{"internalType":"string","name":"environmentalData","type":"string"},{"internalType":"uint256","name":"aiQualityScore","type":"uint256"},{"internalType":"bool","name":"isApproved","type":"bool"}],"internalType":"struct PlantBatch.PlantData","name":"","type":"tuple"}],"stateMutability":"view","type":"function"},{"inputs":[{"internalType":"uint256","name":"","type":"uint256"}],"name":"plantBatches","outputs":[{"internalType":"string","name":"plantName","type":"string"},{"internalType":"string","name":"farmer","type":"string"},{"internalType":"uint256","name":"harvestDate","type":"uint256"},{"internalType":"string","name":"soilQuality","type":"string"},{"internalType":"string","name":"pesticideLevel","type":"string"},{"internalType":"string","name":"environmentalData","type":"string"},{"internalType":"uint256","name":"aiQualityScore","type":"uint256"},{"internalType":"bool","name":"isApproved","type":"bool"}],"stateMutability":"view","type":"function"},{"inputs":[{"internalType":"string","name":"_plantName","type":"string"},{"internalType":"string","name":"_farmer","type":"string"},{"internalType":"string","name":"_soilQuality","type":"string"},{"internalType":"string","name":"_pesticideLevel","type":"string"},{"internalType":"string","name":"_environmentalData","type":"string"},{"internalType":"uint256","name":"_aiQualityScore","type":"uint256"}],"name":"registerPlantBatch","outputs":[],"stateMutability":"nonpayable","type":"function"}],"evm":{"bytecode":{"linkReferences":{},"object":"6080604052348015600f57600080fd5b506112288061001f6000396000f3fe608060405234801561001057600080fd5b506004361061004c5760003560e01c806368233eef1461005157806390ad37031461006f578063c0633c801461009f578063f716cfbb146100bb575b600080fd5b6100596100f2565b60405161006691906108e7565b60405180910390f35b61008960048036038101906100849190610942565b6100f8565b6040516100969190610af5565b60405180910390f35b6100b960048036038101906100b49190610c4c565b61042e565b005b6100d560048036038101906100d09190610942565b61058a565b6040516100e9989796959493929190610dbe565b60405180910390f35b60015481565b610100610887565b6000808381526020019081526020016000206040518061010001604052908160008201805461012e90610e8e565b80601f016020809104026020016040519081016040528092919081815260200182805461015a90610e8e565b80156101a75780601f1061017c576101008083540402835291602001916101a7565b820191906000526020600020905b81548152906001019060200180831161018a57829003601f168201915b505050505081526020016001820180546101c090610e8e565b80601f01602080910402602001604051908101604052809291908181526020018280546101ec90610e8e565b80156102395780601f1061020e57610100808354040283529160200191610239565b820191906000526020600020905b81548152906001019060200180831161021c57829003601f168201915b505050505081526020016002820154815260200160038201805461025c90610e8e565b80601f016020809104026020016040519081016040528092919081815260200182805461028890610e8e565b80156102d55780601f106102aa576101008083540402835291602001916102d5565b820191906000526020600020905b8154815290600101906020018083116102b857829003601f168201915b505050505081526020016004820180546102ee90610e8e565b80601f016020809104026020016040519081016040528092919081815260200182805461031a90610e8e565b80156103675780601f1061033c57610100808354040283529160200191610367565b820191906000526020600020905b81548152906001019060200180831161034a57829003601f168201915b5050505050815260200160058201805461038090610e8e565b80601f01602080910402602001604051908101604052809291908181526020018280546103ac90610e8e565b80156103f95780601f106103ce576101008083540402835291602001916103f9565b820191906000526020600020905b8154815290600101906020018083116103dc57829003601f168201915b50505050508152602001600682015481526020016007820160009054906101000a900460ff1615151515815250509050919050565b6001600081548092919061044190610eee565b9190505550600060468210159050604051806101000160405280888152602001878152602001428152602001868152602001858152602001848152602001838152602001821515815250600080600154815260200190815260200160002060008201518160000190816104b491906110e2565b5060208201518160010190816104ca91906110e2565b506040820151816002015560608201518160030190816104ea91906110e2565b50608082015181600401908161050091906110e2565b5060a082015181600501908161051691906110e2565b5060c0820151816006015560e08201518160070160006101000a81548160ff0219169083151502179055509050507f4c87de224e5cf70f26ac27124ae994ce598bc01b639f4b02e63d22a7121da7a86001548842604051610579939291906111b4565b60405180910390a150505050505050565b60006020528060005260406000206000915090508060000180546105ad90610e8e565b80601f01602080910402602001604051908101604052809291908181526020018280546105d990610e8e565b80156106265780601f106105fb57610100808354040283529160200191610626565b820191906000526020600020905b81548152906001019060200180831161060957829003601f168201915b50505050509080600101805461063b90610e8e565b80601f016020809104026020016040519081016040528092919081815260200182805461066790610e8e565b80156106b45780601f10610689576101008083540402835291602001916106b4565b820191906000526020600020905b81548152906001019060200180831161069757829003601f168201915b5050505050908060020154908060030180546106cf90610e8e565b80601f01602080910402602001604051908101604052809291908181526020018280546106fb90610e8e565b80156107485780601f1061071d57610100808354040283529160200191610748565b820191906000526020600020905b81548152906001019060200180831161072b57829003601f168201915b50505050509080600401805461075d90610e8e565b80601f016020809104026020016040519081016040528092919081815260200182805461078990610e8e565b80156107d65780601f106107ab576101008083540402835291602001916107d6565b820191906000526020600020905b8154815290600101906020018083116107b957829003601f168201915b5050505050908060050180546107eb90610e8e565b80601f016020809104026020016040519081016040528092919081815260200182805461081790610e8e565b80156108645780601f1061083957610100808354040283529160200191610864565b820191906000526020600020905b81548152906001019060200180831161084757829003601f168201915b5050505050908060060154908060070160009054906101000a900460ff16905088565b604051806101000160405280606081526020016060815260200160008152602001606081526020016060815260200160608152602001600081526020016000151581525090565b6000819050919050565b6108e1816108ce565b82525050565b60006020820190506108fc60008301846108d8565b92915050565b6000604051905090565b600080fd5b600080fd5b61091f816108ce565b811461092a57600080fd5b50565b60008135905061093c81610916565b92915050565b6000602082840312156109585761095761090c565b5b60006109668482850161092d565b91505092915050565b600081519050919050565b600082825260208201905092915050565b60005b838110156109a957808201518184015260208101905061098e565b60008484015250505050565b6000601f19601f8301169050919050565b60006109d18261096f565b6109db818561097a565b93506109eb81856020860161098b565b6109f4816109b5565b840191505092915050565b610a08816108ce565b82525050565b60008115159050919050565b610a2381610a0e565b82525050565b6000610100830160008301518482036000860152610a4782826109c6565b91505060208301518482036020860152610a6182826109c6565b9150506040830151610a7660408601826109ff565b5060608301518482036060860152610a8e82826109c6565b91505060808301518482036080860152610aa882826109c6565b91505060a083015184820360a0860152610ac282826109c6565b91505060c0830151610ad760c08601826109ff565b5060e0830151610aea60e0860182610a1a565b508091505092915050565b60006020820190508181036000830152610b0f8184610a29565b905092915050565b600080fd5b600080fd5b7f4e487b7100000000000000000000000000000000000000000000000000000000600052604160045260246000fd5b610b59826109b5565b810181811067ffffffffffffffff82111715610b7857610b77610b21565b5b80604052505050565b6000610b8b610902565b9050610b978282610b50565b919050565b600067ffffffffffffffff821115610bb757610bb6610b21565b5b610bc0826109b5565b9050602081019050919050565b82818337600083830152505050565b6000610bef610bea84610b9c565b610b81565b905082815260208101848484011115610c0b57610c0a610b1c565b5b610c16848285610bcd565b509392505050565b600082601f830112610c3357610c32610b17565b5b8135610c43848260208601610bdc565b91505092915050565b60008060008060008060c08789031215610c6957610c6861090c565b5b600087013567ffffffffffffffff811115610c8757610c86610911565b5b610c9389828a01610c1e565b965050602087013567ffffffffffffffff811115610cb457610cb3610911565b5b610cc089828a01610c1e565b955050604087013567ffffffffffffffff811115610ce157610ce0610911565b5b610ced89828a01610c1e565b945050606087013567ffffffffffffffff811115610d0e57610d0d610911565b5b610d1a89828a01610c1e565b935050608087013567ffffffffffffffff811115610d3b57610d3a610911565b5b610d4789828a01610c1e565b92505060a0610d5889828a0161092d565b9150509295509295509295565b600082825260208201905092915050565b6000610d818261096f565b610d8b8185610d65565b9350610d9b81856020860161098b565b610da4816109b5565b840191505092915050565b610db881610a0e565b82525050565b6000610100820190508181036000830152610dd9818b610d76565b90508181036020830152610ded818a610d76565b9050610dfc60408301896108d8565b8181036060830152610e0e8188610d76565b90508181036080830152610e228187610d76565b905081810360a0830152610e368186610d76565b9050610e4560c08301856108d8565b610e5260e0830184610daf565b9998505050505050505050565b7f4e487b7100000000000000000000000000000000000000000000000000000000600052602260045260246000fd5b60006002820490506001821680610ea657607f821691505b602082108103610eb957610eb8610e5f565b5b50919050565b7f4e487b7100000000000000000000000000000000000000000000000000000000600052601160045260246000fd5b6000610ef9826108ce565b91507fffffffffffffffffffffffffffffffffffffffffffffffffffffffffffffffff8203610f2b57610f2a610ebf565b5b600182019050919050565b60008190508160005260206000209050919050565b60006020601f8301049050919050565b600082821b905092915050565b600060088302610f987fffffffffffffffffffffffffffffffffffffffffffffffffffffffffffffffff82610f5b565b610fa28683610f5b565b95508019841693508086168417925050509392505050565b6000819050919050565b6000610fdf610fda610fd5846108ce565b610fba565b6108ce565b9050919050565b6000819050919050565b610ff983610fc4565b61100d61100582610fe6565b848454610f68565b825550505050565b600090565b611022611015565b61102d818484610ff0565b505050565b5b818110156110515761104660008261101a565b600181019050611033565b5050565b601f8211156110965761106781610f36565b61107084610f4b565b8101602085101561107f578190505b61109361108b85610f4b565b830182611032565b50505b505050565b600082821c905092915050565b60006110b96000198460080261109b565b1980831691505092915050565b60006110d283836110a8565b9150826002028217905092915050565b6110eb8261096f565b67ffffffffffffffff81111561110457611103610b21565b5b61110e8254610e8e565b611119828285611055565b600060209050601f83116001811461114c576000841561113a578287015190505b61114485826110c6565b8655506111ac565b601f19841661115a86610f36565b60005b828110156111825784890151825560018201915060208501945060208101905061115d565b8683101561119f578489015161119b601f8916826110a8565b8355505b6001600288020188555050505b505050505050565b60006060820190506111c960008301866108d8565b81810360208301526111db8185610d76565b90506111ea60408301846108d8565b94935050505056fea2646970667358221220c3a1eb9792cb923470bf831ea2b8bf56730914583020aaaac3c1a9953f8e3a0f64736f6c634300081c0033","opcodes":"PUSH1 0x80 PUSH1 0x40 MSTORE CALLVALUE DUP1 ISZERO PUSH1 0xF JUMPI PUSH1 0x0 DUP1 REVERT JUMPDEST POP PUSH2 0x1228 DUP1 PUSH2 0x1F PUSH1 0x0 CODECOPY PUSH1 0x0 RETURN INVALID PUSH1 0x80 PUSH1 0x40 MSTORE CALLVALUE DUP1 ISZERO PUSH2 0x10 JUMPI PUSH1 0x0 DUP1 REVERT JUMPDEST POP PUSH1 0x4 CALLDATASIZE LT PUSH2 0x4C JUMPI PUSH1 0x0 CALLDATALOAD PUSH1 0xE0 SHR DUP1 PUSH4 0x68233EEF EQ PUSH2 0x51 JUMPI DUP1 PUSH4 0x90AD3703 EQ PUSH2 0x6F JUMPI DUP1 PUSH4 0xC0633C80 EQ PUSH2 0x9F JUMPI DUP1 PUSH4 0xF716CFBB EQ PUSH2 0xBB JUMPI JUMPDEST PUSH1 0x0 DUP1 REVERT JUMPDEST PUSH2 0x59 PUSH2 0xF2 JUMP JUMPDEST PUSH1 0x40 MLOAD PUSH2 0x66 SWAP2 SWAP1 PUSH2 0x8E7 JUMP JUMPDEST PUSH1 0x40 MLOAD DUP1 SWAP2 SUB SWAP1 RETURN JUMPDEST PUSH2 0x89 PUSH1 0x4 DUP1 CALLDATASIZE SUB DUP2 ADD SWAP1 PUSH2 0x84 SWAP2 SWAP1 PUSH2 0x942 JUMP JUMPDEST PUSH2 0xF8 JUMP JUMPDEST PUSH1 0x40 MLOAD PUSH2 0x96 SWAP2 SWAP1 PUSH2 0xAF5 JUMP JUMPDEST PUSH1 0x40 MLOAD DUP1 SWAP2 SUB SWAP1 RETURN JUMPDEST PUSH2 0xB9 PUSH1 0x4 DUP1 CALLDATASIZE SUB DUP2 ADD SWAP1 PUSH2 0xB4 SWAP2 SWAP1 PUSH2 0xC4C JUMP JUMPDEST PUSH2 0x42E JUMP JUMPDEST STOP JUMPDEST PUSH2 0xD5 PUSH1 0x4 DUP1 CALLDATASIZE SUB DUP2 ADD SWAP1 PUSH2 0xD0 SWAP2 SWAP1 PUSH2 0x942 JUMP JUMPDEST PUSH2 0x58A JUMP JUMPDEST PUSH1 0x40 MLOAD PUSH2 0xE9 SWAP9 SWAP8 SWAP7 SWAP6 SWAP5 SWAP4 SWAP3 SWAP2 SWAP1 PUSH2 0xDBE JUMP JUMPDEST PUSH1 0x40 MLOAD DUP1 SWAP2 SUB SWAP1 RETURN JUMPDEST PUSH1 0x1 SLOAD DUP2 JUMP JUMPDEST PUSH2 0x100 PUSH2 0x887 JUMP JUMPDEST PUSH1 0x0 DUP1 DUP4 DUP2 MSTORE PUSH1 0x20 ADD SWAP1 DUP2 MSTORE PUSH1 0x20 ADD PUSH1 0x0 KECCAK256 PUSH1 0x40 MLOAD DUP1 PUSH2 0x100 ADD PUSH1 0x40 MSTORE SWAP1 DUP2 PUSH1 0x0 DUP3 ADD DUP1 SLOAD PUSH2 0x12E SWAP1 PUSH2 0xE8E JUMP JUMPDEST DUP1 PUSH1 0x1F ADD PUSH1 0x20 DUP1 SWAP2 DIV MUL PUSH1 0x20 ADD PUSH1 0x40 MLOAD SWAP1 DUP2 ADD PUSH1 0x40 MSTORE DUP1 SWAP3 SWAP2 SWAP1 DUP2 DUP2 MSTORE PUSH1 0x20 ADD DUP3 DUP1 SLOAD PUSH2 0x15A SWAP1 PUSH2 0xE8E JUMP JUMPDEST DUP1 ISZERO PUSH2 0x1A7 JUMPI DUP1 PUSH1 0x1F LT PUSH2 0x17C JUMPI PUSH2 0x100 DUP1 DUP4 SLOAD DIV MUL DUP4 MSTORE SWAP2 PUSH1 0x20 ADD SWAP2 PUSH2 0x1A7 JUMP JUMPDEST DUP3 ADD SWAP2 SWAP1 PUSH1 0x0 MSTORE PUSH1 0x20 PUSH1 0x0 KECCAK256 SWAP1 JUMPDEST DUP2 SLOAD DUP2 MSTORE SWAP1 PUSH1 0x1 ADD SWAP1 PUSH1 0x20 ADD DUP1 DUP4 GT PUSH2 0x18A JUMPI DUP3 SWAP1 SUB PUSH1 0x1F AND DUP3 ADD SWAP2 JUMPDEST POP POP POP POP POP DUP2 MSTORE PUSH1 0x20 ADD PUSH1 0x1 DUP3 ADD DUP1 SLOAD PUSH2 0x1C0 SWAP1 PUSH2 0xE8E JUMP JUMPDEST DUP1 PUSH1 0x1F ADD PUSH1 0x20 DUP1 SWAP2 DIV MUL PUSH1 0x20 ADD PUSH1 0x40 MLOAD SWAP1 DUP2 ADD PUSH1 0x40 MSTORE DUP1 SWAP3 SWAP2 SWAP1 DUP2 DUP2 MSTORE PUSH1 0x20 ADD DUP3 DUP1 SLOAD PUSH2 0x1EC SWAP1 PUSH2 0xE8E JUMP JUMPDEST DUP1 ISZERO PUSH2 0x239 JUMPI DUP1 PUSH1 0x1F LT PUSH2 0x20E JUMPI PUSH2 0x100 DUP1 DUP4 SLOAD DIV MUL DUP4 MSTORE SWAP2 PUSH1 0x20 ADD SWAP2 PUSH2 0x239 JUMP JUMPDEST DUP3 ADD SWAP2 SWAP1 PUSH1 0x0 MSTORE PUSH1 0x20 PUSH1 0x0 KECCAK256 SWAP1 JUMPDEST DUP2 SLOAD DUP2 MSTORE SWAP1 PUSH1 0x1 ADD SWAP1 PUSH1 0x20 ADD DUP1 DUP4 GT PUSH2 0x21C JUMPI DUP3 SWAP1 SUB PUSH1 0x1F AND DUP3 ADD SWAP2 JUMPDEST POP POP POP POP POP DUP2 MSTORE PUSH1 0x20 ADD PUSH1 0x2 DUP3 ADD SLOAD DUP2 MSTORE PUSH1 0x20 ADD PUSH1 0x3 DUP3 ADD DUP1 SLOAD PUSH2 0x25C SWAP1 PUSH2 0xE8E JUMP JUMPDEST DUP1 PUSH1 0x1F ADD PUSH1 0x20 DUP1 SWAP2 DIV MUL PUSH1 0x20 ADD PUSH1 0x40 MLOAD SWAP1 DUP2 ADD PUSH1 0x40 MSTORE DUP1 SWAP3 SWAP2 SWAP1 DUP2 DUP2 MSTORE PUSH1 0x20 ADD DUP3 DUP1 SLOAD PUSH2 0x288 SWAP1 PUSH2 0xE8E JUMP JUMPDEST DUP1 ISZERO PUSH2 0x2D5 JUMPI DUP1 PUSH1 0x1F LT PUSH2 0x2AA JUMPI PUSH2 0x100 DUP1 DUP4 SLOAD DIV MUL DUP4 MSTORE SWAP2 PUSH1 0x20 ADD SWAP2 PUSH2 0x2D5 JUMP JUMPDEST DUP3 ADD SWAP2 SWAP1 PUSH1 0x0 MSTORE PUSH1 0x20 PUSH1 0x0 KECCAK256 SWAP1 JUMPDEST DUP2 SLOAD DUP2 MSTORE SWAP1 PUSH1 0x1 ADD SWAP1 PUSH1 0x20 ADD DUP1 DUP4 GT PUSH2 0x2B8 JUMPI DUP3 SWAP1 SUB PUSH1 0x1F AND DUP3 ADD SWAP2 JUMPDEST POP POP POP POP POP DUP2 MSTORE PUSH1 0x20 ADD PUSH1 0x4 DUP3 ADD DUP1 SLOAD PUSH2 0x2EE SWAP1 PUSH2 0xE8E JUMP JUMPDEST DUP1 PUSH1 0x1F ADD PUSH1 0x20 DUP1 SWAP2 DIV MUL PUSH1 0x20 ADD PUSH1 0x40 MLOAD SWAP1 DUP2 ADD PUSH1 0x40 MSTORE DUP1 SWAP3 SWAP2 SWAP1 DUP2 DUP2 MSTORE PUSH1 0x20 ADD DUP3 DUP1 SLOAD PUSH2 0x31A SWAP1 PUSH2 0xE8E JUMP JUMPDEST DUP1 ISZERO PUSH2 0x367 JUMPI DUP1 PUSH1 0x1F LT PUSH2 0x33C JUMPI PUSH2 0x100 DUP1 DUP4 SLOAD DIV MUL DUP4 MSTORE SWAP2 PUSH1 0x20 ADD SWAP2 PUSH2 0x367 JUMP JUMPDEST DUP3 ADD SWAP2 SWAP1 PUSH1 0x0 MSTORE PUSH1 0x20 PUSH1 0x0 KECCAK256 SWAP1 JUMPDEST DUP2 SLOAD DUP2 MSTORE SWAP1 PUSH1 0x1 ADD SWAP1 PUSH1 0x20 ADD DUP1 DUP4 GT PUSH2 0x34A JUMPI DUP3 SWAP1 SUB PUSH1 0x1F AND DUP3 ADD SWAP2 JUMPDEST POP POP POP POP POP DUP2 MSTORE PUSH1 0x20 ADD PUSH1 0x5 DUP3 ADD DUP1 SLOAD PUSH2 0x380 SWAP1 PUSH2 0xE8E JUMP JUMPDEST DUP1 PUSH1 0x1F ADD PUSH1 0x20 DUP1 SWAP2 DIV MUL PUSH1 0x20 ADD PUSH1 0x40 MLOAD SWAP1 DUP2 ADD PUSH1 0x40 MSTORE DUP1 SWAP3 SWAP2 SWAP1 DUP2 DUP2 MSTORE PUSH1 0x20 ADD DUP3 DUP1 SLOAD PUSH2 0x3AC SWAP1 PUSH2 0xE8E JUMP JUMPDEST DUP1 ISZERO PUSH2 0x3F9 JUMPI DUP1 PUSH1 0x1F LT PUSH2 0x3CE JUMPI PUSH2 0x100 DUP1 DUP4 SLOAD DIV MUL DUP4 MSTORE SWAP2 PUSH1 0x20 ADD SWAP2 PUSH2 0x3F9 JUMP JUMPDEST DUP3 ADD SWAP2 SWAP1 PUSH1 0x0 MSTORE PUSH1 0x20 PUSH1 0x0 KECCAK256 SWAP1 JUMPDEST DUP2 SLOAD DUP2 MSTORE SWAP1 PUSH1 0x1 ADD SWAP1 PUSH1 0x20 ADD DUP1 DUP4 GT PUSH2 0x3DC JUMPI DUP3 SWAP1 SUB PUSH1 0x1F AND DUP3 ADD SWAP2 JUMPDEST POP POP POP POP POP DUP2 MSTORE PUSH1 0x20 ADD PUSH1 0x6 DUP3 ADD SLOAD DUP2 MSTORE PUSH1 0x20 ADD PUSH1 0x7 DUP3 ADD PUSH1 0x0 SWAP1 SLOAD SWAP1 PUSH2 0x100 EXP SWAP1 DIV PUSH1 0xFF AND ISZERO ISZERO ISZERO ISZERO DUP2 MSTORE POP POP SWAP1 POP SWAP2 SWAP1 POP JUMP JUMPDEST PUSH1 0x1 PUSH1 0x0 DUP2 SLOAD DUP1 SWAP3 SWAP2 SWAP1 PUSH2 0x441 SWAP1 PUSH2 0xEEE JUMP JUMPDEST SWAP2 SWAP1 POP SSTORE POP PUSH1 0x0 PUSH1 0x46 DUP3 LT ISZERO SWAP1 POP PUSH1 0x40 MLOAD DUP1 PUSH2 0x100 ADD PUSH1 0x40 MSTORE DUP1 DUP9 DUP2 MSTORE PUSH1 0x20 ADD DUP8 DUP2 MSTORE PUSH1 0x20 ADD TIMESTAMP DUP2 MSTORE PUSH1 0x20 ADD DUP7 DUP2 MSTORE PUSH1 0x20 ADD DUP6 DUP2 MSTORE PUSH1 0x20 ADD DUP5 DUP2 MSTORE PUSH1 0x20 ADD DUP4 DUP2 MSTORE PUSH1 0x20 ADD DUP3 ISZERO ISZERO DUP2 MSTORE POP PUSH1 0x0 DUP1 PUSH1 0x1 SLOAD DUP2 MSTORE PUSH1 0x20 ADD SWAP1 DUP2 MSTORE PUSH1 0x20 ADD PUSH1 0x0 KECCAK256 PUSH1 0x0 DUP3 ADD MLOAD DUP2 PUSH1 0x0 ADD SWAP1 DUP2 PUSH2 0x4B4 SWAP2 SWAP1 PUSH2 0x10E2 JUMP JUMPDEST POP PUSH1 0x20 DUP3 ADD MLOAD DUP2 PUSH1 0x1 ADD SWAP1 DUP2 PUSH2 0x4CA SWAP2 SWAP1 PUSH2 0x10E2 JUMP JUMPDEST POP PUSH1 0x40 DUP3 ADD MLOAD DUP2 PUSH1 0x2 ADD SSTORE PUSH1 0x60 DUP3 ADD MLOAD DUP2 PUSH1 0x3 ADD SWAP1 DUP2 PUSH2 0x4EA SWAP2 SWAP1 PUSH2 0x10E2 JUMP JUMPDEST POP PUSH1 0x80 DUP3 ADD MLOAD DUP2 PUSH1 0x4 ADD SWAP1 DUP2 PUSH2 0x500 SWAP2 SWAP1 PUSH2 0x10E2 JUMP JUMPDEST POP PUSH1 0xA0 DUP3 ADD MLOAD DUP2 PUSH1 0x5 ADD SWAP1 DUP2 PUSH2 0x516 SWAP2 SWAP1 PUSH2 0x10E2 JUMP JUMPDEST POP PUSH1 0xC0 DUP3 ADD MLOAD DUP2 PUSH1 0x6 ADD SSTORE PUSH1 0xE0 DUP3 ADD MLOAD DUP2 PUSH1 0x7 ADD PUSH1 0x0 PUSH2 0x100 EXP DUP2 SLOAD DUP2 PUSH1 0xFF MUL NOT AND SWAP1 DUP4 ISZERO ISZERO MUL OR SWAP1 SSTORE POP SWAP1 POP POP PUSH32 0x4C87DE224E5CF70F26AC27124AE994CE598BC01B639F4B02E63D22A7121DA7A8 PUSH1 0x1 SLOAD DUP9 TIMESTAMP PUSH1 0x40 MLOAD PUSH2 0x579 SWAP4 SWAP3 SWAP2 SWAP1 PUSH2 0x11B4 JUMP JUMPDEST PUSH1 0x40 MLOAD DUP1 SWAP2 SUB SWAP1 LOG1 POP POP POP POP POP POP POP JUMP JUMPDEST PUSH1 0x0 PUSH1 0x20 MSTORE DUP1 PUSH1 0x0 MSTORE PUSH1 0x40 PUSH1 0x0 KECCAK256 PUSH1 0x0 SWAP2 POP SWAP1 POP DUP1 PUSH1 0x0 ADD DUP1 SLOAD PUSH2 0x5AD SWAP1 PUSH2 0xE8E JUMP JUMPDEST DUP1 PUSH1 0x1F ADD PUSH1 0x20 DUP1 SWAP2 DIV MUL PUSH1 0x20 ADD PUSH1 0x40 MLOAD SWAP1 DUP2 ADD PUSH1 0x40 MSTORE DUP1 SWAP3 SWAP2 SWAP1 DUP2 DUP2 MSTORE PUSH1 0x20 ADD DUP3 DUP1 SLOAD PUSH2 0x5D9 SWAP1 PUSH2 0xE8E JUMP JUMPDEST DUP1 ISZERO PUSH2 0x626 JUMPI DUP1 PUSH1 0x1F LT PUSH2 0x5FB JUMPI PUSH2 0x100 DUP1 DUP4 SLOAD DIV MUL DUP4 MSTORE SWAP2 PUSH1 0x20 ADD SWAP2 PUSH2 0x626 JUMP JUMPDEST DUP3 ADD SWAP2 SWAP1 PUSH1 0x0 MSTORE PUSH1 0x20 PUSH1 0x0 KECCAK256 SWAP1 JUMPDEST DUP2 SLOAD DUP2 MSTORE SWAP1 PUSH1 0x1 ADD SWAP1 PUSH1 0x20 ADD DUP1 DUP4 GT PUSH2 0x609 JUMPI DUP3 SWAP1 SUB PUSH1 0x1F AND DUP3 ADD SWAP2 JUMPDEST POP POP POP POP POP SWAP1 DUP1 PUSH1 0x1 ADD DUP1 SLOAD PUSH2 0x63B SWAP1 PUSH2 0xE8E JUMP JUMPDEST DUP1 PUSH1 0x1F ADD PUSH1 0x20 DUP1 SWAP2 DIV MUL PUSH1 0x20 ADD PUSH1 0x40 MLOAD SWAP1 DUP2 ADD PUSH1 0x40 MSTORE DUP1 SWAP3 SWAP2 SWAP1 DUP2 DUP2 MSTORE PUSH1 0x20 ADD DUP3 DUP1 SLOAD PUSH2 0x667 SWAP1 PUSH2 0xE8E JUMP JUMPDEST DUP1 ISZERO PUSH2 0x6B4 JUMPI DUP1 PUSH1 0x1F LT PUSH2 0x689 JUMPI PUSH2 0x100 DUP1 DUP4 SLOAD DIV MUL DUP4 MSTORE SWAP2 PUSH1 0x20 ADD SWAP2 PUSH2 0x6B4 JUMP JUMPDEST DUP3 ADD SWAP2 SWAP1 PUSH1 0x0 MSTORE PUSH1 0x20 PUSH1 0x0 KECCAK256 SWAP1 JUMPDEST DUP2 SLOAD DUP2 MSTORE SWAP1 PUSH1 0x1 ADD SWAP1 PUSH1 0x20 ADD DUP1 DUP4 GT PUSH2 0x697 JUMPI DUP3 SWAP1 SUB PUSH1 0x1F AND DUP3 ADD SWAP2 JUMPDEST POP POP POP POP POP SWAP1 DUP1 PUSH1 0x2 ADD SLOAD SWAP1 DUP1 PUSH1 0x3 ADD DUP1 SLOAD PUSH2 0x6CF SWAP1 PUSH2 0xE8E JUMP JUMPDEST DUP1 PUSH1 0x1F ADD PUSH1 0x20 DUP1 SWAP2 DIV MUL PUSH1 0x20 ADD PUSH1 0x40 MLOAD SWAP1 DUP2 ADD PUSH1 0x40 MSTORE DUP1 SWAP3 SWAP2 SWAP1 DUP2 DUP2 MSTORE PUSH1 0x20 ADD DUP3 DUP1 SLOAD PUSH2 0x6FB SWAP1 PUSH2 0xE8E JUMP JUMPDEST DUP1 ISZERO PUSH2 0x748 JUMPI DUP1 PUSH1 0x1F LT PUSH2 0x71D JUMPI PUSH2 0x100 DUP1 DUP4 SLOAD DIV MUL DUP4 MSTORE SWAP2 PUSH1 0x20 ADD SWAP2 PUSH2 0x748 JUMP JUMPDEST DUP3 ADD SWAP2 SWAP1 PUSH1 0x0 MSTORE PUSH1 0x20 PUSH1 0x0 KECCAK256 SWAP1 JUMPDEST DUP2 SLOAD DUP2 MSTORE SWAP1 PUSH1 0x1 ADD SWAP1 PUSH1 0x20 ADD DUP1 DUP4 GT PUSH2 0x72B JUMPI DUP3 SWAP1 SUB PUSH1 0x1F AND DUP3 ADD SWAP2 JUMPDEST POP POP POP POP POP SWAP1 DUP1 PUSH1 0x4 ADD DUP1 SLOAD PUSH2 0x75D SWAP1 PUSH2 0xE8E JUMP JUMPDEST DUP1 PUSH1 0x1F ADD PUSH1 0x20 DUP1 SWAP2 DIV MUL PUSH1 0x20 ADD PUSH1 0x40 MLOAD SWAP1 DUP2 ADD PUSH1 0x40 MSTORE DUP1 SWAP3 SWAP2 SWAP1 DUP2 DUP2 MSTORE PUSH1 0x20 ADD DUP3 DUP1 SLOAD PUSH2 0x789 SWAP1 PUSH2 0xE8E JUMP JUMPDEST DUP1 ISZERO PUSH2 0x7D6 JUMPI DUP1 PUSH1 0x1F LT PUSH2 0x7AB JUMPI PUSH2 0x100 DUP1 DUP4 SLOAD DIV MUL DUP4 MSTORE SWAP2 PUSH1 0x20 ADD SWAP2 PUSH2 0x7D6 JUMP JUMPDEST DUP3 ADD SWAP2 SWAP1 PUSH1 0x0 MSTORE PUSH1 0x20 PUSH1 0x0 KECCAK256 SWAP1 JUMPDEST DUP2 SLOAD DUP2 MSTORE SWAP1 PUSH1 0x1 ADD SWAP1 PUSH1 0x20 ADD DUP1 DUP4 GT PUSH2 0x7B9 JUMPI DUP3 SWAP1 SUB PUSH1 0x1F AND DUP3 ADD SWAP2 JUMPDEST POP POP POP POP POP SWAP1 DUP1 PUSH1 0x5 ADD DUP1 SLOAD PUSH2 0x7EB SWAP1 PUSH2 0xE8E JUMP JUMPDEST DUP1 PUSH1 0x1F ADD PUSH1 0x20 DUP1 SWAP2 DIV MUL PUSH1 0x20 ADD PUSH1 0x40 MLOAD SWAP1 DUP2 ADD PUSH1 0x40 MSTORE DUP1 SWAP3 SWAP2 SWAP1 DUP2 DUP2 MSTORE PUSH1 0x20 ADD DUP3 DUP1 SLOAD PUSH2 0x817 SWAP1 PUSH2 0xE8E JUMP JUMPDEST DUP1 ISZERO PUSH2 0x864 JUMPI DUP1 PUSH1 0x1F LT PUSH2 0x839 JUMPI PUSH2 0x100 DUP1 DUP4 SLOAD DIV MUL DUP4 MSTORE SWAP2 PUSH1 0x20 ADD SWAP2 PUSH2 0x864 JUMP JUMPDEST DUP3 ADD SWAP2 SWAP1 PUSH1 0x0 MSTORE PUSH1 0x20 PUSH1 0x0 KECCAK256 SWAP1 JUMPDEST DUP2 SLOAD DUP2 MSTORE SWAP1 PUSH1 0x1 ADD SWAP1 PUSH1 0x20 ADD DUP1 DUP4 GT PUSH2 0x847 JUMPI DUP3 SWAP1 SUB PUSH1 0x1F AND DUP3 ADD SWAP2 JUMPDEST POP POP POP POP POP SWAP1 DUP1 PUSH1 0x6 ADD SLOAD SWAP1 DUP1 PUSH1 0x7 ADD PUSH1 0x0 SWAP1 SLOAD SWAP1 PUSH2 0x100 EXP SWAP1 DIV PUSH1 0xFF AND SWAP1 POP DUP9 JUMP JUMPDEST PUSH1 0x40 MLOAD DUP1 PUSH2 0x100 ADD PUSH1 0x40 MSTORE DUP1 PUSH1 0x60 DUP2 MSTORE PUSH1 0x20 ADD PUSH1 0x60 DUP2 MSTORE PUSH1 0x20 ADD PUSH1 0x0 DUP2 MSTORE PUSH1 0x20 ADD PUSH1 0x60 DUP2 MSTORE PUSH1 0x20 ADD PUSH1 0x60 DUP2 MSTORE PUSH1 0x20 ADD PUSH1 0x60 DUP2 MSTORE PUSH1 0x20 ADD PUSH1 0x0 DUP2 MSTORE PUSH1 0x20 ADD PUSH1 0x0 ISZERO ISZERO DUP2 MSTORE POP SWAP1 JUMP JUMPDEST PUSH1 0x0 DUP2 SWAP1 POP SWAP2 SWAP1 POP JUMP JUMPDEST PUSH2 0x8E1 DUP2 PUSH2 0x8CE JUMP JUMPDEST DUP3 MSTORE POP POP JUMP JUMPDEST PUSH1 0x0 PUSH1 0x20 DUP3 ADD SWAP1 POP PUSH2 0x8FC PUSH1 0x0 DUP4 ADD DUP5 PUSH2 0x8D8 JUMP JUMPDEST SWAP3 SWAP2 POP POP JUMP JUMPDEST PUSH1 0x0 PUSH1 0x40 MLOAD SWAP1 POP SWAP1 JUMP JUMPDEST PUSH1 0x0 DUP1 REVERT JUMPDEST PUSH1 0x0 DUP1 REVERT JUMPDEST PUSH2 0x91F DUP2 PUSH2 0x8CE JUMP JUMPDEST DUP2 EQ PUSH2 0x92A JUMPI PUSH1 0x0 DUP1 REVERT JUMPDEST POP JUMP JUMPDEST PUSH1 0x0 DUP2 CALLDATALOAD SWAP1 POP PUSH2 0x93C DUP2 PUSH2 0x916 JUMP JUMPDEST SWAP3 SWAP2 POP POP JUMP JUMPDEST PUSH1 0x0 PUSH1 0x20 DUP3 DUP5 SUB SLT ISZERO PUSH2 0x958 JUMPI PUSH2 0x957 PUSH2 0x90C JUMP JUMPDEST JUMPDEST PUSH1 0x0 PUSH2 0x966 DUP5 DUP3 DUP6 ADD PUSH2 0x92D JUMP JUMPDEST SWAP2 POP POP SWAP3 SWAP2 POP POP JUMP JUMPDEST PUSH1 0x0 DUP2 MLOAD SWAP1 POP SWAP2 SWAP1 POP JUMP JUMPDEST PUSH1 0x0 DUP3 DUP3 MSTORE PUSH1 0x20 DUP3 ADD SWAP1 POP SWAP3 SWAP2 POP POP JUMP JUMPDEST PUSH1 0x0 JUMPDEST DUP4 DUP2 LT ISZERO PUSH2 0x9A9 JUMPI DUP1 DUP3 ADD MLOAD DUP2 DUP5 ADD MSTORE PUSH1 0x20 DUP2 ADD SWAP1 POP PUSH2 0x98E JUMP JUMPDEST PUSH1 0x0 DUP5 DUP5 ADD MSTORE POP POP POP POP JUMP JUMPDEST PUSH1 0x0 PUSH1 0x1F NOT PUSH1 0x1F DUP4 ADD AND SWAP1 POP SWAP2 SWAP1 POP JUMP JUMPDEST PUSH1 0x0 PUSH2 0x9D1 DUP3 PUSH2 0x96F JUMP JUMPDEST PUSH2 0x9DB DUP2 DUP6 PUSH2 0x97A JUMP JUMPDEST SWAP4 POP PUSH2 0x9EB DUP2 DUP6 PUSH1 0x20 DUP7 ADD PUSH2 0x98B JUMP JUMPDEST PUSH2 0x9F4 DUP2 PUSH2 0x9B5 JUMP JUMPDEST DUP5 ADD SWAP2 POP POP SWAP3 SWAP2 POP POP JUMP JUMPDEST PUSH2 0xA08 DUP2 PUSH2 0x8CE JUMP JUMPDEST DUP3 MSTORE POP POP JUMP JUMPDEST PUSH1 0x0 DUP2 ISZERO ISZERO SWAP1 POP SWAP2 SWAP1 POP JUMP JUMPDEST PUSH2 0xA23 DUP2 PUSH2 0xA0E JUMP JUMPDEST DUP3 MSTORE POP POP JUMP JUMPDEST PUSH1 0x0 PUSH2 0x100 DUP4 ADD PUSH1 0x0 DUP4 ADD MLOAD DUP5 DUP3 SUB PUSH1 0x0 DUP7 ADD MSTORE PUSH2 0xA47 DUP3 DUP3 PUSH2 0x9C6 JUMP JUMPDEST SWAP2 POP POP PUSH1 0x20 DUP4 ADD MLOAD DUP5 DUP3 SUB PUSH1 0x20 DUP7 ADD MSTORE PUSH2 0xA61 DUP3 DUP3 PUSH2 0x9C6 JUMP JUMPDEST SWAP2 POP POP PUSH1 0x40 DUP4 ADD MLOAD PUSH2 0xA76 PUSH1 0x40 DUP7 ADD DUP3 PUSH2 0x9FF JUMP JUMPDEST POP PUSH1 0x60 DUP4 ADD MLOAD DUP5 DUP3 SUB PUSH1 0x60 DUP7 ADD MSTORE PUSH2 0xA8E DUP3 DUP3 PUSH2 0x9C6 JUMP JUMPDEST SWAP2 POP POP PUSH1 0x80 DUP4 ADD MLOAD DUP5 DUP3 SUB PUSH1 0x80 DUP7 ADD MSTORE PUSH2 0xAA8 DUP3 DUP3 PUSH2 0x9C6 JUMP JUMPDEST SWAP2 POP POP PUSH1 0xA0 DUP4 ADD MLOAD DUP5 DUP3 SUB PUSH1 0xA0 DUP7 ADD MSTORE PUSH2 0xAC2 DUP3 DUP3 PUSH2 0x9C6 JUMP JUMPDEST SWAP2 POP POP PUSH1 0xC0 DUP4 ADD MLOAD PUSH2 0xAD7 PUSH1 0xC0 DUP7 ADD DUP3 PUSH2 0x9FF JUMP JUMPDEST POP PUSH1 0xE0 DUP4 ADD MLOAD PUSH2 0xAEA PUSH1 0xE0 DUP7 ADD DUP3 PUSH2 0xA1A JUMP JUMPDEST POP DUP1 SWAP2 POP POP SWAP3 SWAP2 POP POP JUMP JUMPDEST PUSH1 0x0 PUSH1 0x20 DUP3 ADD SWAP1 POP DUP2 DUP2 SUB PUSH1 0x0 DUP4 ADD MSTORE PUSH2 0xB0F DUP2 DUP5 PUSH2 0xA29 JUMP JUMPDEST SWAP1 POP SWAP3 SWAP2 POP POP JUMP JUMPDEST PUSH1 0x0 DUP1 REVERT JUMPDEST PUSH1 0x0 DUP1 REVERT JUMPDEST PUSH32 0x4E487B7100000000000000000000000000000000000000000000000000000000 PUSH1 0x0 MSTORE PUSH1 0x41 PUSH1 0x4 MSTORE PUSH1 0x24 PUSH1 0x0 REVERT JUMPDEST PUSH2 0xB59 DUP3 PUSH2 0x9B5 JUMP JUMPDEST DUP2 ADD DUP2 DUP2 LT PUSH8 0xFFFFFFFFFFFFFFFF DUP3 GT OR ISZERO PUSH2 0xB78 JUMPI PUSH2 0xB77 PUSH2 0xB21 JUMP JUMPDEST JUMPDEST DUP1 PUSH1 0x40 MSTORE POP POP POP JUMP JUMPDEST PUSH1 0x0 PUSH2 0xB8B PUSH2 0x902 JUMP JUMPDEST SWAP1 POP PUSH2 0xB97 DUP3 DUP3 PUSH2 0xB50 JUMP JUMPDEST SWAP2 SWAP1 POP JUMP JUMPDEST PUSH1 0x0 PUSH8 0xFFFFFFFFFFFFFFFF DUP3 GT ISZERO PUSH2 0xBB7 JUMPI PUSH2 0xBB6 PUSH2 0xB21 JUMP JUMPDEST JUMPDEST PUSH2 0xBC0 DUP3 PUSH2 0x9B5 JUMP JUMPDEST SWAP1 POP PUSH1 0x20 DUP2 ADD SWAP1 POP SWAP2 SWAP1 POP JUMP JUMPDEST DUP3 DUP2 DUP4 CALLDATACOPY PUSH1 0x0 DUP4 DUP4 ADD MSTORE POP POP POP JUMP JUMPDEST PUSH1 0x0 PUSH2 0xBEF PUSH2 0xBEA DUP5 PUSH2 0xB9C JUMP JUMPDEST PUSH2 0xB81 JUMP JUMPDEST SWAP1 POP DUP3 DUP2 MSTORE PUSH1 0x20 DUP2 ADD DUP5 DUP5 DUP5 ADD GT ISZERO PUSH2 0xC0B JUMPI PUSH2 0xC0A PUSH2 0xB1C JUMP JUMPDEST JUMPDEST PUSH2 0xC16 DUP5 DUP3 DUP6 PUSH2 0xBCD JUMP JUMPDEST POP SWAP4 SWAP3 POP POP POP JUMP JUMPDEST PUSH1 0x0 DUP3 PUSH1 0x1F DUP4 ADD SLT PUSH2 0xC33 JUMPI PUSH2 0xC32 PUSH2 0xB17 JUMP JUMPDEST JUMPDEST DUP2 CALLDATALOAD PUSH2 0xC43 DUP5 DUP3 PUSH1 0x20 DUP7 ADD PUSH2 0xBDC JUMP JUMPDEST SWAP2 POP POP SWAP3 SWAP2 POP POP JUMP JUMPDEST PUSH1 0x0 DUP1 PUSH1 0x0 DUP1 PUSH1 0x0 DUP1 PUSH1 0xC0 DUP8 DUP10 SUB SLT ISZERO PUSH2 0xC69 JUMPI PUSH2 0xC68 PUSH2 0x90C JUMP JUMPDEST JUMPDEST PUSH1 0x0 DUP8 ADD CALLDATALOAD PUSH8 0xFFFFFFFFFFFFFFFF DUP2 GT ISZERO PUSH2 0xC87 JUMPI PUSH2 0xC86 PUSH2 0x911 JUMP JUMPDEST JUMPDEST PUSH2 0xC93 DUP10 DUP3 DUP11 ADD PUSH2 0xC1E JUMP JUMPDEST SWAP7 POP POP PUSH1 0x20 DUP8 ADD CALLDATALOAD PUSH8 0xFFFFFFFFFFFFFFFF DUP2 GT ISZERO PUSH2 0xCB4 JUMPI PUSH2 0xCB3 PUSH2 0x911 JUMP JUMPDEST JUMPDEST PUSH2 0xCC0 DUP10 DUP3 DUP11 ADD PUSH2 0xC1E JUMP JUMPDEST SWAP6 POP POP PUSH1 0x40 DUP8 ADD CALLDATALOAD PUSH8 0xFFFFFFFFFFFFFFFF DUP2 GT ISZERO PUSH2 0xCE1 JUMPI PUSH2 0xCE0 PUSH2 0x911 JUMP JUMPDEST JUMPDEST PUSH2 0xCED DUP10 DUP3 DUP11 ADD PUSH2 0xC1E JUMP JUMPDEST SWAP5 POP POP PUSH1 0x60 DUP8 ADD CALLDATALOAD PUSH8 0xFFFFFFFFFFFFFFFF DUP2 GT ISZERO PUSH2 0xD0E JUMPI PUSH2 0xD0D PUSH2 0x911 JUMP JUMPDEST JUMPDEST PUSH2 0xD1A DUP10 DUP3 DUP11 ADD PUSH2 0xC1E JUMP JUMPDEST SWAP4 POP POP PUSH1 0x80 DUP8 ADD CALLDATALOAD PUSH8 0xFFFFFFFFFFFFFFFF DUP2 GT ISZERO PUSH2 0xD3B JUMPI PUSH2 0xD3A PUSH2 0x911 JUMP JUMPDEST JUMPDEST PUSH2 0xD47 DUP10 DUP3 DUP11 ADD PUSH2 0xC1E JUMP JUMPDEST SWAP3 POP POP PUSH1 0xA0 PUSH2 0xD58 DUP10 DUP3 DUP11 ADD PUSH2 0x92D JUMP JUMPDEST SWAP2 POP POP SWAP3 SWAP6 POP SWAP3 SWAP6 POP SWAP3 SWAP6 JUMP JUMPDEST PUSH1 0x0 DUP3 DUP3 MSTORE PUSH1 0x20 DUP3 ADD SWAP1 POP SWAP3 SWAP2 POP POP JUMP JUMPDEST PUSH1 0x0 PUSH2 0xD81 DUP3 PUSH2 0x96F JUMP JUMPDEST PUSH2 0xD8B DUP2 DUP6 PUSH2 0xD65 JUMP JUMPDEST SWAP4 POP PUSH2 0xD9B DUP2 DUP6 PUSH1 0x20 DUP7 ADD PUSH2 0x98B JUMP JUMPDEST PUSH2 0xDA4 DUP2 PUSH2 0x9B5 JUMP JUMPDEST DUP5 ADD SWAP2 POP POP SWAP3 SWAP2 POP POP JUMP JUMPDEST PUSH2 0xDB8 DUP2 PUSH2 0xA0E JUMP JUMPDEST DUP3 MSTORE POP POP JUMP JUMPDEST PUSH1 0x0 PUSH2 0x100 DUP3 ADD SWAP1 POP DUP2 DUP2 SUB PUSH1 0x0 DUP4 ADD MSTORE PUSH2 0xDD9 DUP2 DUP12 PUSH2 0xD76 JUMP JUMPDEST SWAP1 POP DUP2 DUP2 SUB PUSH1 0x20 DUP4 ADD MSTORE PUSH2 0xDED DUP2 DUP11 PUSH2 0xD76 JUMP JUMPDEST SWAP1 POP PUSH2 0xDFC PUSH1 0x40 DUP4 ADD DUP10 PUSH2 0x8D8 JUMP JUMPDEST DUP2 DUP2 SUB PUSH1 0x60 DUP4 ADD MSTORE PUSH2 0xE0E DUP2 DUP9 PUSH2 0xD76 JUMP JUMPDEST SWAP1 POP DUP2 DUP2 SUB PUSH1 0x80 DUP4 ADD MSTORE PUSH2 0xE22 DUP2 DUP8 PUSH2 0xD76 JUMP JUMPDEST SWAP1 POP DUP2 DUP2 SUB PUSH1 0xA0 DUP4 ADD MSTORE PUSH2 0xE36 DUP2 DUP7 PUSH2 0xD76 JUMP JUMPDEST SWAP1 POP PUSH2 0xE45 PUSH1 0xC0 DUP4 ADD DUP6 PUSH2 0x8D8 JUMP JUMPDEST PUSH2 0xE52 PUSH1 0xE0 DUP4 ADD DUP5 PUSH2 0xDAF JUMP JUMPDEST SWAP10 SWAP9 POP POP POP POP POP POP POP POP POP JUMP JUMPDEST PUSH32 0x4E487B7100000000000000000000000000000000000000000000000000000000 PUSH1 0x0 MSTORE PUSH1 0x22 PUSH1 0x4 MSTORE PUSH1 0x24 PUSH1 0x0 REVERT JUMPDEST PUSH1 0x0 PUSH1 0x2 DUP3 DIV SWAP1 POP PUSH1 0x1 DUP3 AND DUP1 PUSH2 0xEA6 JUMPI PUSH1 0x7F DUP3 AND SWAP2 POP JUMPDEST PUSH1 0x20 DUP3 LT DUP2 SUB PUSH2 0xEB9 JUMPI PUSH2 0xEB8 PUSH2 0xE5F JUMP JUMPDEST JUMPDEST POP SWAP2 SWAP1 POP JUMP JUMPDEST PUSH32 0x4E487B7100000000000000000000000000000000000000000000000000000000 PUSH1 0x0 MSTORE PUSH1 0x11 PUSH1 0x4 MSTORE PUSH1 0x24 PUSH1 0x0 REVERT JUMPDEST PUSH1 0x0 PUSH2 0xEF9 DUP3 PUSH2 0x8CE JUMP JUMPDEST SWAP2 POP PUSH32 0xFFFFFFFFFFFFFFFFFFFFFFFFFFFFFFFFFFFFFFFFFFFFFFFFFFFFFFFFFFFFFFFF DUP3 SUB PUSH2 0xF2B JUMPI PUSH2 0xF2A PUSH2 0xEBF JUMP JUMPDEST JUMPDEST PUSH1 0x1 DUP3 ADD SWAP1 POP SWAP2 SWAP1 POP JUMP JUMPDEST PUSH1 0x0 DUP2 SWAP1 POP DUP2 PUSH1 0x0 MSTORE PUSH1 0x20 PUSH1 0x0 KECCAK256 SWAP1 POP SWAP2 SWAP1 POP JUMP JUMPDEST PUSH1 0x0 PUSH1 0x20 PUSH1 0x1F DUP4 ADD DIV SWAP1 POP SWAP2 SWAP1 POP JUMP JUMPDEST PUSH1 0x0 DUP3 DUP3 SHL SWAP1 POP SWAP3 SWAP2 POP POP JUMP JUMPDEST PUSH1 0x0 PUSH1 0x8 DUP4 MUL PUSH2 0xF98 PUSH32 0xFFFFFFFFFFFFFFFFFFFFFFFFFFFFFFFFFFFFFFFFFFFFFFFFFFFFFFFFFFFFFFFF DUP3 PUSH2 0xF5B JUMP JUMPDEST PUSH2 0xFA2 DUP7 DUP4 PUSH2 0xF5B JUMP JUMPDEST SWAP6 POP DUP1 NOT DUP5 AND SWAP4 POP DUP1 DUP7 AND DUP5 OR SWAP3 POP POP POP SWAP4 SWAP3 POP POP POP JUMP JUMPDEST PUSH1 0x0 DUP2 SWAP1 POP SWAP2 SWAP1 POP JUMP JUMPDEST PUSH1 0x0 PUSH2 0xFDF PUSH2 0xFDA PUSH2 0xFD5 DUP5 PUSH2 0x8CE JUMP JUMPDEST PUSH2 0xFBA JUMP JUMPDEST PUSH2 0x8CE JUMP JUMPDEST SWAP1 POP SWAP2 SWAP1 POP JUMP JUMPDEST PUSH1 0x0 DUP2 SWAP1 POP SWAP2 SWAP1 POP JUMP JUMPDEST PUSH2 0xFF9 DUP4 PUSH2 0xFC4 JUMP JUMPDEST PUSH2 0x100D PUSH2 0x1005 DUP3 PUSH2 0xFE6 JUMP JUMPDEST DUP5 DUP5 SLOAD PUSH2 0xF68 JUMP JUMPDEST DUP3 SSTORE POP POP POP POP JUMP JUMPDEST PUSH1 0x0 SWAP1 JUMP JUMPDEST PUSH2 0x1022 PUSH2 0x1015 JUMP JUMPDEST PUSH2 0x102D DUP2 DUP5 DUP5 PUSH2 0xFF0 JUMP JUMPDEST POP POP POP JUMP JUMPDEST JUMPDEST DUP2 DUP2 LT ISZERO PUSH2 0x1051 JUMPI PUSH2 0x1046 PUSH1 0x0 DUP3 PUSH2 0x101A JUMP JUMPDEST PUSH1 0x1 DUP2 ADD SWAP1 POP PUSH2 0x1033 JUMP JUMPDEST POP POP JUMP JUMPDEST PUSH1 0x1F DUP3 GT ISZERO PUSH2 0x1096 JUMPI PUSH2 0x1067 DUP2 PUSH2 0xF36 JUMP JUMPDEST PUSH2 0x1070 DUP5 PUSH2 0xF4B JUMP JUMPDEST DUP2 ADD PUSH1 0x20 DUP6 LT ISZERO PUSH2 0x107F JUMPI DUP2 SWAP1 POP JUMPDEST PUSH2 0x1093 PUSH2 0x108B DUP6 PUSH2 0xF4B JUMP JUMPDEST DUP4 ADD DUP3 PUSH2 0x1032 JUMP JUMPDEST POP POP JUMPDEST POP POP POP JUMP JUMPDEST PUSH1 0x0 DUP3 DUP3 SHR SWAP1 POP SWAP3 SWAP2 POP POP JUMP JUMPDEST PUSH1 0x0 PUSH2 0x10B9 PUSH1 0x0 NOT DUP5 PUSH1 0x8 MUL PUSH2 0x109B JUMP JUMPDEST NOT DUP1 DUP4 AND SWAP2 POP POP SWAP3 SWAP2 POP POP JUMP JUMPDEST PUSH1 0x0 PUSH2 0x10D2 DUP4 DUP4 PUSH2 0x10A8 JUMP JUMPDEST SWAP2 POP DUP3 PUSH1 0x2 MUL DUP3 OR SWAP1 POP SWAP3 SWAP2 POP POP JUMP JUMPDEST PUSH2 0x10EB DUP3 PUSH2 0x96F JUMP JUMPDEST PUSH8 0xFFFFFFFFFFFFFFFF DUP2 GT ISZERO PUSH2 0x1104 JUMPI PUSH2 0x1103 PUSH2 0xB21 JUMP JUMPDEST JUMPDEST PUSH2 0x110E DUP3 SLOAD PUSH2 0xE8E JUMP JUMPDEST PUSH2 0x1119 DUP3 DUP3 DUP6 PUSH2 0x1055 JUMP JUMPDEST PUSH1 0x0 PUSH1 0x20 SWAP1 POP PUSH1 0x1F DUP4 GT PUSH1 0x1 DUP2 EQ PUSH2 0x114C JUMPI PUSH1 0x0 DUP5 ISZERO PUSH2 0x113A JUMPI DUP3 DUP8 ADD MLOAD SWAP1 POP JUMPDEST PUSH2 0x1144 DUP6 DUP3 PUSH2 0x10C6 JUMP JUMPDEST DUP7 SSTORE POP PUSH2 0x11AC JUMP JUMPDEST PUSH1 0x1F NOT DUP5 AND PUSH2 0x115A DUP7 PUSH2 0xF36 JUMP JUMPDEST PUSH1 0x0 JUMPDEST DUP3 DUP2 LT ISZERO PUSH2 0x1182 JUMPI DUP5 DUP10 ADD MLOAD DUP3 SSTORE PUSH1 0x1 DUP3 ADD SWAP2 POP PUSH1 0x20 DUP6 ADD SWAP5 POP PUSH1 0x20 DUP2 ADD SWAP1 POP PUSH2 0x115D JUMP JUMPDEST DUP7 DUP4 LT ISZERO PUSH2 0x119F JUMPI DUP5 DUP10 ADD MLOAD PUSH2 0x119B PUSH1 0x1F DUP10 AND DUP3 PUSH2 0x10A8 JUMP JUMPDEST DUP4 SSTORE POP JUMPDEST PUSH1 0x1 PUSH1 0x2 DUP9 MUL ADD DUP9 SSTORE POP POP POP JUMPDEST POP POP POP POP POP POP JUMP JUMPDEST PUSH1 0x0 PUSH1 0x60 DUP3 ADD SWAP1 POP PUSH2 0x11C9 PUSH1 0x0 DUP4 ADD DUP7 PUSH2 0x8D8 JUMP JUMPDEST DUP2 DUP2 SUB PUSH1 0x20 DUP4 ADD MSTORE PUSH2 0x11DB DUP2 DUP6 PUSH2 0xD76 JUMP JUMPDEST SWAP1 POP PUSH2 0x11EA PUSH1 0x40 DUP4 ADD DUP5 PUSH2 0x8D8 JUMP JUMPDEST SWAP5 SWAP4 POP POP POP POP JUMP INVALID LOG2 PUSH5 0x6970667358 0x22 SLT KECCAK256 0xC3 LOG1 0xEB SWAP8 SWAP3 0xCB SWAP3 CALLVALUE PUSH17 0xBF831EA2B8BF56730914583020AAAAC3C1 0xA9 SWAP6 EXTCODEHASH DUP15 GASPRICE 0xF PUSH5 0x736F6C6343 STOP ADDMOD SHR STOP CALLER "},"methodIdentifiers":{"batchCounter()":"68233eef","getPlantBatch(uint256)":"90ad3703","plantBatches(uint256)":"f716cfbb","registerPlantBatch(string,string,string,string,string,uint256)":"c0633c80"}}}}}