{
  "_format": "hh-sol-artifact-1",
  "contractName": "PlantBatch",
  "sourceName": "contracts/PlantBatch.sol",
  "abi": [
    {
      "anonymous": false,
      "inputs": [
        {
          "indexed": false,
          "internalType": "uint256",
          "name": "batchId",
          "type": "uint256"
        },
        {
          "indexed": false,
          "internalType": "string",
          "name": "plantName",
          "type": "string"
        },
        {
          "indexed": false,
          "internalType": "uint256",
          "name": "harvestDate",
          "type": "uint256"
        }
      ],
      "name": "PlantBatchRegistered",
      "type": "event"
    },
    {
      "inputs": [],
      "name": "batchCounter",
      "outputs": [
        {
          "internalType": "uint256",
          "name": "",
          "type": "uint256"
        }
      ],
      "stateMutability": "view",
      "type": "function"
    },
    {
      "inputs": [
        {
          "internalType": "uint256",
          "name": "_batchId",
          "type": "uint256"
        }
      ],
      "name": "getPlantBatch",
      "outputs": [
        {
          "components": [
            {
              "internalType": "string",
              "name": "plantName",
              "type": "string"
            },
            {
              "internalType": "string",
              "name": "farmer",
              "type": "string"
            },
            {
              "internalType": "uint256",
              "name": "harvestDate",
              "type": "uint256"
            },
            {
              "internalType": "string",
              "name": "soilQuality",
              "type": "string"
            },
            {
              "internalType": "string",
              "name": "pesticideLevel",
              "type": "string"
            },
            {
              "internalType": "string",
              "name": "environmentalData",
              "type": "string"
            },
            {
              "internalType": "uint256",
              "name": "aiQualityScore",
              "type": "uint256"
            },
            {
              "internalType": "bool",
              "name": "isApproved",
              "type": "bool"
            }
          ],
          "internalType": "struct PlantBatch.PlantData",
          "name": "",
          "type": "tuple"
        }
      ],
      "stateMutability": "view",
      "type": "function"
    },
    {
      "inputs": [
        {
          "internalType": "uint256",
          "name": "",
          "type": "uint256"
        }
      ],
      "name": "plantBatches",
      "outputs": [
        {
          "internalType": "string",
          "name": "plantName",
          "type": "string"
        },
        {
          "internalType": "string",
          "name": "farmer",
          "type": "string"
        },
        {
          "internalType": "uint256",
          "name": "harvestDate",
          "type": "uint256"
        },
        {
          "internalType": "string",
          "name": "soilQuality",
          "type": "string"
        },
        {
          "internalType": "string",
          "name": "pesticideLevel",
          "type": "string"
        },
        {
          "internalType": "string",
          "name": "environmentalData",
          "type": "string"
        },
        {
          "internalType": "uint256",
          "name": "aiQualityScore",
          "type": "uint256"
        },
        {
          "internalType": "bool",
          "name": "isApproved",
          "type": "bool"
        }
      ],
      "stateMutability": "view",
      "type": "function"
    },
    {
      "inputs": [
        {
          "internalType": "string",
          "name": "_plantName",
          "type": "string"
        },
        {
          "internalType": "string",
          "name": "_farmer",
          "type": "string"
        },
        {
          "internalType": "string",
          "name": "_soilQuality",
          "type": "string"
        },
        {
          "internalType": "string",
          "name": "_pesticideLevel",
          "type": "string"
        },
        {
          "internalType": "string",
          "name": "_environmentalData",
          "type": "string"
        },
        {
          "internalType": "uint256",
          "name": "_aiQualityScore",
          "type": "uint256"
        }
      ],
      "name": "registerPlantBatch",
      "outputs": [],
      "stateMutability": "nonpayable",
      "type": "function"
    }
  ],
  "bytecode": "0x6080604052348015600f57600080fd5b506112288061001f6000396000f3fe608060405234801561001057600080fd5b506004361061004c5760003560e01c806368233eef1461005157806390ad37031461006f578063c0633c801461009f578063f716cfbb146100bb575b600080fd5b6100596100f2565b60405161006691906108e7565b60405180910390f35b61008960048036038101906100849190610942565b6100f8565b6040516100969190610af5565b60405180910390f35b6100b960048036038101906100b49190610c4c565b61042e565b005b6100d560048036038101906100d09190610942565b61058a565b6040516100e9989796959493929190610dbe565b60405180910390f35b60015481565b610100610887565b6000808381526020019081526020016000206040518061010001604052908160008201805461012e90610e8e565b80601f016020809104026020016040519081016040528092919081815260200182805461015a90610e8e565b80156101a75780601f1061017c576101008083540402835291602001916101a7565b820191906000526020600020905b81548152906001019060200180831161018a57829003601f168201915b505050505081526020016001820180546101c090610e8e565b80601f01602080910402602001604051908101604052809291908181526020018280546101ec90610e8e565b80156102395780601f1061020e57610100808354040283529160200191610239565b820191906000526020600020905b81548152906001019060200180831161021c57829003601f168201915b505050505081526020016002820154815260200160038201805461025c90610e8e565b80601f016020809104026020016040519081016040528092919081815260200182805461028890610e8e565b80156102d55780601f106102aa576101008083540402835291602001916102d5565b820191906000526020600020905b8154815290600101906020018083116102b857829003601f168201915b505050505081526020016004820180546102ee90610e8e565b80601f016020809104026020016040519081016040528092919081815260200182805461031a90610e8e565b80156103675780601f1061033c57610100808354040283529160200191610367565b820191906000526020600020905b81548152906001019060200180831161034a57829003601f168201915b5050505050815260200160058201805461038090610e8e565b80601f01602080910402602001604051908101604052809291908181526020018280546103ac90610e8e565b80156103f95780601f106103ce576101008083540402835291602001916103f9565b820191906000526020600020905b8154815290600101906020018083116103dc57829003601f168201915b50505050508152602001600682015481526020016007820160009054906101000a900460ff1615151515815250509050919050565b6001600081548092919061044190610eee565b9190505550600060468210159050604051806101000160405280888152602001878152602001428152602001868152602001858152602001848152602001838152602001821515815250600080600154815260200190815260200160002060008201518160000190816104b491906110e2565b5060208201518160010190816104ca91906110e2565b506040820151816002015560608201518160030190816104ea91906110e2565b50608082015181600401908161050091906110e2565b5060a082015181600501908161051691906110e2565b5060c0820151816006015560e08201518160070160006101000a81548160ff0219169083151502179055509050507f4c87de224e5cf70f26ac27124ae994ce598bc01b639f4b02e63d22a7121da7a86001548842604051610579939291906111b4565b60405180910390a150505050505050565b60006020528060005260406000206000915090508060000180546105ad90610e8e565b80601f01602080910402602001604051908101604052809291908181526020018280546105d990610e8e565b80156106265780601f106105fb57610100808354040283529160200191610626565b820191906000526020600020905b81548152906001019060200180831161060957829003601f168201915b50505050509080600101805461063b90610e8e565b80601f016020809104026020016040519081016040528092919081815260200182805461066790610e8e565b80156106b45780601f10610689576101008083540402835291602001916106b4565b820191906000526020600020905b81548152906001019060200180831161069757829003601f168201915b5050505050908060020154908060030180546106cf90610e8e565b80601f01602080910402602001604051908101604052809291908181526020018280546106fb90610e8e565b80156107485780601f1061071d57610100808354040283529160200191610748565b820191906000526020600020905b81548152906001019060200180831161072b57829003601f168201915b50505050509080600401805461075d90610e8e565b80601f016020809104026020016040519081016040528092919081815260200182805461078990610e8e565b80156107d65780601f106107ab576101008083540402835291602001916107d6565b820191906000526020600020905b8154815290600101906020018083116107b957829003601f168201915b5050505050908060050180546107eb90610e8e565b80601f016020809104026020016040519081016040528092919081815260200182805461081790610e8e565b80156108645780601f1061083957610100808354040283529160200191610864565b820191906000526020600020905b81548152906001019060200180831161084757829003601f168201915b5050505050908060060154908060070160009054906101000a900460ff16905088565b604051806101000160405280606081526020016060815260200160008152602001606081526020016060815260200160608152602001600081526020016000151581525090565b6000819050919050565b6108e1816108ce565b82525050565b60006020820190506108fc60008301846108d8565b92915050565b6000604051905090565b600080fd5b600080fd5b61091f816108ce565b811461092a57600080fd5b50565b60008135905061093c81610916565b92915050565b6000602082840312156109585761095761090c565b5b60006109668482850161092d565b91505092915050565b600081519050919050565b600082825260208201905092915050565b60005b838110156109a957808201518184015260208101905061098e565b60008484015250505050565b6000601f19601f8301169050919050565b60006109d18261096f565b6109db818561097a565b93506109eb81856020860161098b565b6109f4816109b5565b840191505092915050565b610a08816108ce565b82525050565b60008115159050919050565b610a2381610a0e565b82525050565b6000610100830160008301518482036000860152610a4782826109c6565b91505060208301518482036020860152610a6182826109c6565b9150506040830151610a7660408601826109ff565b5060608301518482036060860152610a8e82826109c6565b91505060808301518482036080860152610aa882826109c6565b91505060a083015184820360a0860152610ac282826109c6565b91505060c0830151610ad760c08601826109ff565b5060e0830151610aea60e0860182610a1a565b508091505092915050565b60006020820190508181036000830152610b0f8184610a29565b905092915050565b600080fd5b600080fd5b7f4e487b7100000000000000000000000000000000000000000000000000000000600052604160045260246000fd5b610b59826109b5565b810181811067ffffffffffffffff82111715610b7857610b77610b21565b5b80604052505050565b6000610b8b610902565b9050610b978282610b50565b919050565b600067ffffffffffffffff821115610bb757610bb6610b21565b5b610bc0826109b5565b9050602081019050919050565b82818337600083830152505050565b6000610bef610bea84610b9c565b610b81565b905082815260208101848484011115610c0b57610c0a610b1c565b5b610c16848285610bcd565b509392505050565b600082601f830112610c3357610c32610b17565b5b8135610c43848260208601610bdc565b91505092915050565b60008060008060008060c08789031215610c6957610c6861090c565b5b600087013567ffffffffffffffff811115610c8757610c86610911565b5b610c9389828a01610c1e565b965050602087013567ffffffffffffffff811115610cb457610cb3610911565b5b610cc089828a01610c1e565b955050604087013567ffffffffffffffff811115610ce157610ce0610911565b5b610ced89828a01610c1e565b945050606087013567ffffffffffffffff811115610d0e57610d0d610911565b5b610d1a89828a01610c1e565b935050608087013567ffffffffffffffff811115610d3b57610d3a610911565b5b610d4789828a01610c1e565b92505060a0610d5889828a0161092d565b9150509295509295509295565b600082825260208201905092915050565b6000610d818261096f565b610d8b8185610d65565b9350610d9b81856020860161098b565b610da4816109b5565b840191505092915050565b610db881610a0e565b82525050565b6000610100820190508181036000830152610dd9818b610d76565b90508181036020830152610ded818a610d76565b9050610dfc60408301896108d8565b8181036060830152610e0e8188610d76565b90508181036080830152610e228187610d76565b905081810360a0830152610e368186610d76565b9050610e4560c08301856108d8565b610e5260e0830184610daf565b9998505050505050505050565b7f4e487b7100000000000000000000000000000000000000000000000000000000600052602260045260246000fd5b60006002820490506001821680610ea657607f821691505b602082108103610eb957610eb8610e5f565b5b50919050565b7f4e487b7100000000000000000000000000000000000000000000000000000000600052601160045260246000fd5b6000610ef9826108ce565b91507fffffffffffffffffffffffffffffffffffffffffffffffffffffffffffffffff8203610f2b57610f2a610ebf565b5b600182019050919050565b60008190508160005260206000209050919050565b60006020601f8301049050919050565b600082821b905092915050565b600060088302610f987fffffffffffffffffffffffffffffffffffffffffffffffffffffffffffffffff82610f5b565b610fa28683610f5b565b95508019841693508086168417925050509392505050565b6000819050919050565b6000610fdf610fda610fd5846108ce565b610fba565b6108ce565b9050919050565b6000819050919050565b610ff983610fc4565b61100d61100582610fe6565b848454610f68565b825550505050565b600090565b611022611015565b61102d818484610ff0565b505050565b5b818110156110515761104660008261101a565b600181019050611033565b5050565b601f8211156110965761106781610f36565b61107084610f4b565b8101602085101561107f578190505b61109361108b85610f4b565b830182611032565b50505b505050565b600082821c905092915050565b60006110b96000198460080261109b565b1980831691505092915050565b60006110d283836110a8565b9150826002028217905092915050565b6110eb8261096f565b67ffffffffffffffff81111561110457611103610b21565b5b61110e8254610e8e565b611119828285611055565b600060209050601f83116001811461114c576000841561113a578287015190505b61114485826110c6565b8655506111ac565b601f19841661115a86610f36565b60005b828110156111825784890151825560018201915060208501945060208101905061115d565b8683101561119f578489015161119b601f8916826110a8565b8355505b6001600288020188555050505b505050505050565b60006060820190506111c960008301866108d8565b81810360208301526111db8185610d76565b90506111ea60408301846108d8565b94935050505056fea2646970667358221220c3a1eb9792cb923470bf831ea2b8bf56730914583020aaaac3c1a9953f8e3a0f64736f6c634300081c0033",
  "linkReferences": {},
  "deployedLinkReferences": {}
}